{
  "contractName": "VoteRecord",
  "abi": [
    {
      "constant": true,
      "inputs": [],
      "name": "_owner",
      "outputs": [
        {
          "name": "",
          "type": "address"
        }
      ],
      "payable": false,
      "stateMutability": "view",
      "type": "function"
    },
    {
      "inputs": [],
      "payable": false,
      "stateMutability": "nonpayable",
      "type": "constructor"
    },
    {
      "constant": false,
      "inputs": [
        {
          "name": "name",
          "type": "bytes32"
        },
        {
          "name": "rule",
          "type": "string"
        },
        {
          "name": "candidates",
          "type": "bytes32[]"
        },
        {
          "name": "voteNums",
          "type": "uint256[]"
        }
      ],
      "name": "record",
      "outputs": [
        {
          "name": "",
          "type": "uint256"
        }
      ],
      "payable": false,
      "stateMutability": "nonpayable",
      "type": "function"
    },
    {
      "constant": true,
      "inputs": [],
      "name": "getLastestVote",
      "outputs": [
        {
          "name": "",
          "type": "uint256"
        },
        {
          "name": "",
          "type": "bytes32"
        }
      ],
      "payable": false,
      "stateMutability": "view",
      "type": "function"
    },
    {
      "constant": true,
      "inputs": [],
      "name": "getVoteNum",
      "outputs": [
        {
          "name": "",
          "type": "uint256"
        }
      ],
      "payable": false,
      "stateMutability": "view",
      "type": "function"
    },
    {
      "constant": true,
      "inputs": [
        {
          "name": "startIndex",
          "type": "uint256"
        },
        {
          "name": "num",
          "type": "uint256"
        }
      ],
      "name": "getVoteList",
      "outputs": [
        {
          "name": "",
          "type": "uint256[]"
        },
        {
          "name": "",
          "type": "bytes32[]"
        }
      ],
      "payable": false,
      "stateMutability": "view",
      "type": "function"
    },
    {
      "constant": false,
      "inputs": [
        {
          "name": "voteID",
          "type": "uint256"
        },
        {
          "name": "voters",
          "type": "bytes32[]"
        },
        {
          "name": "candidates",
          "type": "bytes32[]"
        },
        {
          "name": "voteNums",
          "type": "uint256[]"
        }
      ],
      "name": "recordVoter",
      "outputs": [
        {
          "name": "",
          "type": "bool"
        }
      ],
      "payable": false,
      "stateMutability": "nonpayable",
      "type": "function"
    },
    {
      "constant": true,
      "inputs": [
        {
          "name": "voteID",
          "type": "uint256"
        }
      ],
      "name": "getVoteInfo",
      "outputs": [
        {
          "name": "",
          "type": "bytes32"
        },
        {
          "name": "",
          "type": "string"
        },
        {
          "name": "",
          "type": "bytes32[]"
        },
        {
          "name": "",
          "type": "uint256[]"
        },
        {
          "name": "",
          "type": "uint256"
        }
      ],
      "payable": false,
      "stateMutability": "view",
      "type": "function"
    },
    {
      "constant": true,
      "inputs": [
        {
          "name": "voteID",
          "type": "uint256"
        },
        {
          "name": "startIndex",
          "type": "uint256"
        },
        {
          "name": "num",
          "type": "uint256"
        }
      ],
      "name": "getVoterInfo",
      "outputs": [
        {
          "name": "",
          "type": "bytes32[]"
        },
        {
          "name": "",
          "type": "bytes32[]"
        },
        {
          "name": "",
          "type": "uint256[]"
        }
      ],
      "payable": false,
      "stateMutability": "view",
      "type": "function"
    }
  ],
  "bytecode": "0x608060405234801561001057600080fd5b50336000806101000a81548173ffffffffffffffffffffffffffffffffffffffff021916908373ffffffffffffffffffffffffffffffffffffffff160217905550611b0a806100606000396000f3fe60806040526004361061008e576000357c0100000000000000000000000000000000000000000000000000000000900463ffffffff1680631e0399141461009357806368406c26146100c55780638d824273146101f95780639ac72eef1461034b5780639af0a65c14610559578063b2bdfa7b1461063b578063d21a1b9e14610692578063e2fdcf0b146108a1575b600080fd5b34801561009f57600080fd5b506100a86108cc565b604051808381526020018281526020019250505060405180910390f35b3480156100d157600080fd5b50610112600480360360608110156100e857600080fd5b81019080803590602001909291908035906020019092919080359060200190929190505050610983565b60405180806020018060200180602001848103845287818151815260200191508051906020019060200280838360005b8381101561015d578082015181840152602081019050610142565b50505050905001848103835286818151815260200191508051906020019060200280838360005b8381101561019f578082015181840152602081019050610184565b50505050905001848103825285818151815260200191508051906020019060200280838360005b838110156101e15780820151818401526020810190506101c6565b50505050905001965050505050505060405180910390f35b34801561020557600080fd5b506102326004803603602081101561021c57600080fd5b8101908080359060200190929190505050610c9f565b60405180868152602001806020018060200180602001858152602001848103845288818151815260200191508051906020019080838360005b8381101561028657808201518184015260208101905061026b565b50505050905090810190601f1680156102b35780820380516001836020036101000a031916815260200191505b50848103835287818151815260200191508051906020019060200280838360005b838110156102ef5780820151818401526020810190506102d4565b50505050905001848103825286818151815260200191508051906020019060200280838360005b83811015610331578082015181840152602081019050610316565b505050509050019850505050505050505060405180910390f35b34801561035757600080fd5b506105436004803603608081101561036e57600080fd5b81019080803590602001909291908035906020019064010000000081111561039557600080fd5b8201836020820111156103a757600080fd5b803590602001918460018302840111640100000000831117156103c957600080fd5b91908080601f016020809104026020016040519081016040528093929190818152602001838380828437600081840152601f19601f8201169050808301925050505050505091929192908035906020019064010000000081111561042c57600080fd5b82018360208201111561043e57600080fd5b8035906020019184602083028401116401000000008311171561046057600080fd5b919080806020026020016040519081016040528093929190818152602001838360200280828437600081840152601f19601f820116905080830192505050505050509192919290803590602001906401000000008111156104c057600080fd5b8201836020820111156104d257600080fd5b803590602001918460208302840111640100000000831117156104f457600080fd5b919080806020026020016040519081016040528093929190818152602001838360200280828437600081840152601f19601f820116905080830192505050505050509192919290505050610ec1565b6040518082815260200191505060405180910390f35b34801561056557600080fd5b5061059c6004803603604081101561057c57600080fd5b8101908080359060200190929190803590602001909291905050506112c8565b604051808060200180602001838103835285818151815260200191508051906020019060200280838360005b838110156105e35780820151818401526020810190506105c8565b50505050905001838103825284818151815260200191508051906020019060200280838360005b8381101561062557808201518184015260208101905061060a565b5050505090500194505050505060405180910390f35b34801561064757600080fd5b50610650611551565b604051808273ffffffffffffffffffffffffffffffffffffffff1673ffffffffffffffffffffffffffffffffffffffff16815260200191505060405180910390f35b34801561069e57600080fd5b50610887600480360360808110156106b557600080fd5b8101908080359060200190929190803590602001906401000000008111156106dc57600080fd5b8201836020820111156106ee57600080fd5b8035906020019184602083028401116401000000008311171561071057600080fd5b919080806020026020016040519081016040528093929190818152602001838360200280828437600081840152601f19601f8201169050808301925050505050505091929192908035906020019064010000000081111561077057600080fd5b82018360208201111561078257600080fd5b803590602001918460208302840111640100000000831117156107a457600080fd5b919080806020026020016040519081016040528093929190818152602001838360200280828437600081840152601f19601f8201169050808301925050505050505091929192908035906020019064010000000081111561080457600080fd5b82018360208201111561081657600080fd5b8035906020019184602083028401116401000000008311171561083857600080fd5b919080806020026020016040519081016040528093929190818152602001838360200280828437600081840152601f19601f820116905080830192505050505050509192919290505050611576565b604051808215151515815260200191505060405180910390f35b3480156108ad57600080fd5b506108b66117ef565b6040518082815260200191505060405180910390f35b600080600060018054905011151561094c576040517f08c379a000000000000000000000000000000000000000000000000000000000815260040180806020018281038252600f8152602001807f656d70747920766f746520696e666f000000000000000000000000000000000081525060200191505060405180910390fd5b600180805490500360018080805490500381548110151561096957fe5b906000526020600020906006020160000154915091509091565b606080606060648411151515610a01576040517f08c379a00000000000000000000000000000000000000000000000000000000081526004018080602001828103825260098152602001807f6e756d206572726f72000000000000000000000000000000000000000000000081525060200191505060405180910390fd5b60006001805490501180610a19575060018054905086105b1515610a8d576040517f08c379a000000000000000000000000000000000000000000000000000000000815260040180806020018281038252600e8152602001807f766f7465206e6f7420657869737400000000000000000000000000000000000081525060200191505060405180910390fd5b6000600187815481101515610a9e57fe5b9060005260206000209060060201905060008610158015610abf5750600085115b8015610ad45750806002018054905085870111155b1515610b48576040517f08c379a00000000000000000000000000000000000000000000000000000000081526004018080602001828103825260178152602001807f7374617274496e646578206f72206e756d206572726f7200000000000000000081525060200191505060405180910390fd5b606085604051908082528060200260200182016040528015610b795781602001602082028038833980820191505090505b509050606086604051908082528060200260200182016040528015610bad5781602001602082028038833980820191505090505b509050606087604051908082528060200260200182016040528015610be15781602001602082028038833980820191505090505b50905060008090505b88811015610c8857600085600201828c01815481101515610c0757fe5b9060005260206000209060030201905080600001548583815181101515610c2a57fe5b906020019060200201818152505080600101548483815181101515610c4b57fe5b906020019060200201818152505080600201548383815181101515610c6c57fe5b9060200190602002018181525050508080600101915050610bea565b508282829650965096505050505093509350939050565b600060608060606000806001805490501180610cbf575060018054905086105b1515610d33576040517f08c379a000000000000000000000000000000000000000000000000000000000815260040180806020018281038252600e8152602001807f766f7465206e6f7420657869737400000000000000000000000000000000000081525060200191505060405180910390fd5b6000600187815481101515610d4457fe5b9060005260206000209060060201905080600001548160010182600301836004018460020180549050838054600181600116156101000203166002900480601f016020809104026020016040519081016040528092919081815260200182805460018160011615610100020316600290048015610e025780601f10610dd757610100808354040283529160200191610e02565b820191906000526020600020905b815481529060010190602001808311610de557829003601f168201915b5050505050935082805480602002602001604051908101604052809291908181526020018280548015610e5457602002820191906000526020600020905b815481526020019060010190808311610e40575b5050505050925081805480602002602001604051908101604052809291908181526020018280548015610ea657602002820191906000526020600020905b815481526020019060010190808311610e92575b50505050509150955095509550955095505091939590929450565b60008060009054906101000a900473ffffffffffffffffffffffffffffffffffffffff1673ffffffffffffffffffffffffffffffffffffffff163373ffffffffffffffffffffffffffffffffffffffff16141515610f1e57600080fd5b6000602060ff16111515610f9a576040517f08c379a000000000000000000000000000000000000000000000000000000000815260040180806020018281038252600f8152602001807f766f7465206e616d65206572726f72000000000000000000000000000000000081525060200191505060405180910390fd5b60008451111515611013576040517f08c379a000000000000000000000000000000000000000000000000000000000815260040180806020018281038252600f8152602001807f766f74652072756c65206572726f72000000000000000000000000000000000081525060200191505060405180910390fd5b81518351148015611025575060008351115b1515611099576040517f08c379a00000000000000000000000000000000000000000000000000000000081526004018080602001828103825260148152602001807f63616e64696461746520696e666f206572726f7200000000000000000000000081525060200191505060405180910390fd5b61012c835111151515611114576040517f08c379a00000000000000000000000000000000000000000000000000000000081526004018080602001828103825260168152602001807f63616e646964617465206c656e677468206572726f720000000000000000000081525060200191505060405180910390fd5b6001805480919060010161112891906117fc565b50600060018080805490500381548110151561114057fe5b906000526020600020906006020190508581600001819055508481600101908051906020019061117192919061182e565b508381600301908051906020019061118a9291906118ae565b50828160040190805190602001906111a39291906118fb565b5060008090505b84518110156112b45781600501600086838151811015156111c757fe5b90602001906020020151815260200190815260200160002060009054906101000a900460ff16151515611262576040517f08c379a00000000000000000000000000000000000000000000000000000000081526004018080602001828103825260158152602001807f63616e64696461746573206475706c696361746564000000000000000000000081525060200191505060405180910390fd5b6001826005016000878481518110151561127857fe5b90602001906020020151815260200190815260200160002060006101000a81548160ff02191690831515021790555080806001019150506111aa565b506001808054905003915050949350505050565b6060806101f48311151515611345576040517f08c379a00000000000000000000000000000000000000000000000000000000081526004018080602001828103825260098152602001807f6e756d206572726f72000000000000000000000000000000000000000000000081525060200191505060405180910390fd5b60006001805490501115156113c2576040517f08c379a000000000000000000000000000000000000000000000000000000000815260040180806020018281038252600e8152602001807f766f7465206e6f7420657869737400000000000000000000000000000000000081525060200191505060405180910390fd5b600084101580156113d35750600083115b80156113e6575060018054905083850111155b151561145a576040517f08c379a00000000000000000000000000000000000000000000000000000000081526004018080602001828103825260178152602001807f7374617274496e646578206f72206e756d206572726f7200000000000000000081525060200191505060405180910390fd5b60608360405190808252806020026020018201604052801561148b5781602001602082028038833980820191505090505b5090506060846040519080825280602002602001820160405280156114bf5781602001602082028038833980820191505090505b50905060008090505b8581101561154157600060018289018154811015156114e357fe5b90600052602060002090600602019050818801848381518110151561150457fe5b90602001906020020181815250508060000154838381518110151561152557fe5b90602001906020020181815250505080806001019150506114c8565b5081819350935050509250929050565b6000809054906101000a900473ffffffffffffffffffffffffffffffffffffffff1681565b60008060009054906101000a900473ffffffffffffffffffffffffffffffffffffffff1673ffffffffffffffffffffffffffffffffffffffff163373ffffffffffffffffffffffffffffffffffffffff161415156115d357600080fd5b6001805490508510151561164f576040517f08c379a000000000000000000000000000000000000000000000000000000000815260040180806020018281038252600d8152602001807f766f7465206964206572726f720000000000000000000000000000000000000081525060200191505060405180910390fd5b82518451148015611661575081518451145b151561166c57600080fd5b6000845111801561167f57506064845111155b15156116f3576040517f08c379a000000000000000000000000000000000000000000000000000000000815260040180806020018281038252600f8152602001807f766f746572206e756d206572726f72000000000000000000000000000000000081525060200191505060405180910390fd5b600060018681548110151561170457fe5b9060005260206000209060060201905060008090505b85518110156117e15781600201606060405190810160405280888481518110151561174157fe5b906020019060200201518152602001878481518110151561175e57fe5b906020019060200201518152602001868481518110151561177b57fe5b9060200190602002015181525090806001815401808255809150509060018203906000526020600020906003020160009091929091909150600082015181600001556020820151816001015560408201518160020155505050808060010191505061171a565b506001915050949350505050565b6000600180549050905090565b815481835581811115611829576006028160060283600052602060002091820191016118289190611948565b5b505050565b828054600181600116156101000203166002900490600052602060002090601f016020900481019282601f1061186f57805160ff191683800117855561189d565b8280016001018555821561189d579182015b8281111561189c578251825591602001919060010190611881565b5b5090506118aa91906119af565b5090565b8280548282559060005260206000209081019282156118ea579160200282015b828111156118e95782518255916020019190600101906118ce565b5b5090506118f791906119d4565b5090565b828054828255906000526020600020908101928215611937579160200282015b8281111561193657825182559160200191906001019061191b565b5b50905061194491906119af565b5090565b6119ac91905b808211156119a85760008082016000905560018201600061196f91906119f9565b60028201600061197f9190611a41565b60038201600061198f9190611a65565b60048201600061199f9190611a86565b5060060161194e565b5090565b90565b6119d191905b808211156119cd5760008160009055506001016119b5565b5090565b90565b6119f691905b808211156119f25760008160009055506001016119da565b5090565b90565b50805460018160011615610100020316600290046000825580601f10611a1f5750611a3e565b601f016020900490600052602060002090810190611a3d91906119af565b5b50565b5080546000825560030290600052602060002090810190611a629190611aa7565b50565b5080546000825590600052602060002090810190611a8391906119d4565b50565b5080546000825590600052602060002090810190611aa491906119af565b50565b611adb91905b80821115611ad7576000808201600090556001820160009055600282016000905550600301611aad565b5090565b9056fea165627a7a72305820cdc76c2db9e5c130a8a51d27d5f9deccb4e6509675304f37e527ece0d66a4fa50029",
  "source": "pragma solidity ^0.5.0;\r\n\r\ncontract VoteRecord {\r\n    \r\n  //投票信息\r\n  struct VoteInfo {\r\n    bytes32 name;         //投票活动名称\r\n    string rule;          //投票活动规则\r\n    VoterInfo[] voters;   //投票人信息\r\n\r\n    bytes32[] candidates; //候选人\r\n    uint[]    voteNums;   //所得票数 \r\n\r\n    mapping(bytes32 => bool) uniqueCandidates; \r\n  } \r\n  address public _owner;\r\n  \r\n  modifier onlyOwner() {\r\n    require(msg.sender == _owner);\r\n    _;\r\n  }\r\n  //投票人信息\r\n  struct VoterInfo {\r\n    bytes32 voter;         //投票人\r\n    bytes32 candidate;     //所投候选人\r\n    uint voteNum;          //所投票数\r\n  }\r\n\r\n  VoteInfo[] vote_;\r\n\r\n  constructor() public {\r\n      _owner = msg.sender;\r\n  }\r\n\r\n\r\n  //投票信息上链\r\n  function record(\r\n      bytes32 name,                    //投票活动名称\r\n      string memory rule,                     //投票规则\r\n      bytes32[] memory candidates,            //候选人列表\r\n      uint[] memory voteNums                  //得票数列表\r\n    ) \r\n    onlyOwner public\r\n    returns(uint)\r\n  {\r\n    require(name.length > 0, \"vote name error\");\r\n    require(bytes(rule).length > 0, \"vote rule error\");\r\n    require(candidates.length == voteNums.length && candidates.length > 0, \"candidate info error\");\r\n    require(candidates.length <= 300, \"candidate length error\");\r\n\r\n\r\n    vote_.length++;\r\n    VoteInfo storage info = vote_[vote_.length-1];\r\n    info.name = name;\r\n    info.rule = rule;\r\n    info.candidates = candidates;\r\n    info.voteNums = voteNums; \r\n \r\n    //check candidates\r\n    for(uint i = 0; i < candidates.length; i++) {\r\n      require(!info.uniqueCandidates[candidates[i]], \"candidates duplicated\");\r\n      info.uniqueCandidates[candidates[i]] = true;\r\n    }\r\n\r\n    return vote_.length-1;\r\n  }\r\n\r\n  //查询最新的投票信息\r\n  function getLastestVote()\r\n    view external \r\n    returns(\r\n      uint,    //投票活动ID\r\n      bytes32  //投票活动名称\r\n    )\r\n  { \r\n    require(vote_.length > 0, \"empty vote info\");\r\n    return (\r\n      vote_.length-1,\r\n      vote_[vote_.length-1].name\r\n    );\r\n  }\r\n\r\n  function getVoteNum()\r\n    view external\r\n    returns (uint) \r\n  {\r\n    return vote_.length;\r\n  }\r\n\r\n  //查询投票信息列表\r\n  function getVoteList(\r\n    uint startIndex,  //查询投票信息起始位置  (startIndex+num)不大于getVoteNum接口返回的投票信息数量\r\n    uint num          //查询投票信息数量, 单次查询数量不超过500\r\n  )\r\n    view public\r\n    returns(\r\n      uint[] memory,     //投票活动ID列表\r\n      bytes32[] memory  //投票活动名称列表\r\n    )\r\n  {\r\n    require(num <= 500, \"num error\");\r\n    require(vote_.length > 0, \"vote not exist\");\r\n    require(startIndex >= 0 && num > 0 && startIndex + num <= vote_.length, \"startIndex or num error\"); \r\n \r\n    uint[] memory voteIDs = new uint[](num);\r\n    bytes32[] memory voteNames = new bytes32[](num);\r\n\r\n    for(uint i = 0; i < num; i++) {\r\n      VoteInfo storage voteInfo = vote_[startIndex+i];\r\n      voteIDs[i] = startIndex + i;\r\n      voteNames[i] = voteInfo.name;\r\n    }\r\n    return(\r\n      voteIDs,\r\n      voteNames\r\n    );\r\n  }\r\n\r\n  //投票人信息上链, 每上链投票人信息数量不超过100\r\n  function recordVoter(\r\n    uint voteID,                //投票活动ID\r\n    bytes32[] memory voters,           //投票人列表\r\n    bytes32[]  memory candidates,       //所投候选人列表\r\n    uint[]  memory voteNums             //所投票数\r\n    )\r\n    onlyOwner public\r\n    returns(bool)\r\n  {\r\n    require(voteID < vote_.length, \"vote id error\");\r\n    require(voters.length == candidates.length && voters.length == voteNums.length);\r\n    require(voters.length > 0 && voters.length <= 100, \"voter num error\");\r\n\r\n    VoteInfo storage info = vote_[voteID];\r\n\r\n    for(uint i = 0; i < voters.length; i++) {\r\n      info.voters.push(VoterInfo({\r\n        voter: voters[i],\r\n        candidate: candidates[i],\r\n        voteNum: voteNums[i]\r\n      }));\r\n    }\r\n    return true;\r\n  }\r\n\r\n  //查看投票详细信息\r\n  function getVoteInfo(\r\n    uint voteID                 //投票活动ID\r\n  )\r\n    view public\r\n    returns( \r\n      bytes32,                    //投票活动名称\r\n      string memory,                     //投票规则\r\n      bytes32[] memory,                  //候选人列表\r\n      uint[] memory,                     //得票数列表\r\n      uint                        //投票者信息数量\r\n    )\r\n  {\r\n    require(vote_.length > 0 || voteID < vote_.length, \"vote not exist\");\r\n    VoteInfo storage info = vote_[voteID];\r\n    return(\r\n      info.name,\r\n      info.rule,\r\n      info.candidates,\r\n      info.voteNums,\r\n      info.voters.length\r\n    );\r\n  }\r\n\r\n  //查看投票人信息\r\n  function getVoterInfo(\r\n    uint voteID,        //投票活动ID\r\n    uint startIndex,    //投票人信息起始位置, (startIndex+num)不大于getVoteInfo接口返回的投票者信息数量\r\n    uint num            //查看投票人信息数量\r\n    )\r\n    view public\r\n    returns(\r\n      bytes32[] memory,        //投票人列表\r\n      bytes32[] memory,        //所投候选人列表\r\n      uint[] memory           //所投票数\r\n    )\r\n  { \r\n    require(num <= 100, \"num error\");\r\n    require(vote_.length > 0 || voteID < vote_.length, \"vote not exist\");\r\n    VoteInfo storage info = vote_[voteID];\r\n    require(startIndex >= 0 && num > 0 && startIndex + num <= info.voters.length, \"startIndex or num error\");\r\n\r\n    bytes32[] memory voters = new bytes32[](num);\r\n    bytes32[] memory candidates = new bytes32[](num);\r\n    uint[] memory voteNums = new uint[](num);\r\n\r\n    for(uint i = 0; i < num; i++) {\r\n      VoterInfo storage voterInfo = info.voters[startIndex+i];\r\n      voters[i] = voterInfo.voter;\r\n      candidates[i] = voterInfo.candidate;\r\n      voteNums[i] = voterInfo.voteNum;\r\n    }\r\n    return(\r\n      voters,\r\n      candidates,\r\n      voteNums\r\n    );\r\n  }\r\n}\r\n\r\n",
  "sourcePath": "/usr/linjing/solidity/wkc-voting/contracts/VoteRecord.sol",
  "compiler": {
    "name": "solc",
    "version": "0.5.0+commit.1d4f565a.Emscripten.clang"
  },
  "schemaVersion": "3.0.3",
  "updatedAt": "2019-03-18T09:46:16.310Z",
  "devdoc": {
    "methods": {}
  },
  "userdoc": {
    "methods": {}
  }
}